:100000000C9475030C949D030C949D030C9403189D
:100010000C9403180C9403180C949D030C94062262
:100020000C949D030C949D030C949D030C948F24BD
:100030000C949D030C949D030C949D030C949D03C0
:100040000C94B9170C949D030C9470160C944A16DA
:100050000C949D030C949D030C949D030C949D03A0
:100060000C94DD190C949D03C507EC07B307060833
:1000700026085A084E085A085A085A088908D50707
:10008000A0E0000000E0A0A0808000000080808050
:1000900020E0000000E080E080E0000000E080E080
:1000A0008080000000A0A0E080E0000000E020E0F0
:1000B000A0E0000000E020E08080000000E0808000
:1000C000A0E0000000E0A0E08080000000E0A0E0F0
:1000D0001300B900DC00F700150126011501F70037
:1000E000D000A500B900D000DC00B900B900AF0015
:1000F000B900D000AF008B001A00A5009300830068
:100100009300A500A500A500930093009300A5000F
:10011000C400C400A500930083009300A500A500BF
:10012000A500A50093009300A5009300830019008B
:10013000C400C400DC00C4000601F700C400C40011
:10014000DC00C40026010601C400C40088014A0185
:100150000601F700DC00880188014A01060126013A
:1001600006012800DC00DC00DC002601B8010000EC
:10017000880172014A014B02B801880172014A01EB
:100180004B02B8018801720188014A010000DC00BD
:10019000DC00DC002601B801880172014A014B0233
:1001A000B801880172014A014B02B801880172014D
:1001B00088014A01510006015D018801B8018801EA
:1001C0004A01000006015D018801B80188010000B4
:1001D00006015D018801B80188014A0100004A0159
:1001E0005D014A0106010601000006015D0188016A
:1001F000B80188014A01000006015D018801B801CB
:100200008801000006015D018801B80188014A01EA
:1002100000004A015D014A010601060100000B02CF
:10022000EE01B8018801EE018801B8015D01880185
:100230000B02EE01B8018801EE0100000B02EE0195
:10024000B8018801EE018801B8015D0188014A0109
:100250005D014A01060106011304020403080402B9
:100260000403080402040308040204011A04040439
:100270000404040204040204040204040404040444
:10028000040404040404011908080404040208080E
:100290000404040208080404040404080804040410
:1002A00002280C0C0C0202080C0C0C02040C0C0CA6
:1002B00002040C0C0C02080C0C0C02020C0C0C02BC
:1002C000040C0C0C02040C0C0C0251080C0C0C0459
:1002D0000408080C0C0C0208080C0C0C0404080898
:1002E0000C0C0C0208080C0C0C040408080C0C0C78
:1002F0000208080C0C0C040408080C0C0C0208087A
:100300000C0C0C0410041004100C0C0C0208080C4B
:100310000C0C0410041004100C0C0C02000000085B
:1003200000020100000304070000000000000000BC
:1003300000000000000000001818001800183C3CE5
:1003400000000000006C6C286CFE6C6C006C6CFE95
:1003500038403C1000107804180C666000066630C7
:1003600014A666FC003C663C00000000000404008B
:10037000181830600060301818180C0600060C18A9
:10038000FE386C0000006C387C101000000010106B
:1003900000000000003030603C0000000000000061
:1003A0000000060600000000180C06000000603087
:1003B0006E66663C003C66761818187E0018181C9D
:1003C000300C067E003C66603860663C003C66602F
:1003D000327E3030003038346060663C007E063E4D
:1003E0003E66663C003C660630181818007E663093
:1003F0003C66663C003C66667C60663C003C66662B
:1004000000181800000018180018180C0000181820
:100410000C18306000603018003C00000000003C08
:1004200030180C0600060C1838180018003C6660DE
:100430001A423C00001C223A7E666666003C6666F4
:100440003E66663E003E66660606663C003C660604
:100450006666663E003E66663E06067E007E0606D0
:100460003E060606007E06060676663C003C6606EC
:100470007E666666006666661818183C003C1818AA
:100480003036361C007830300E1E36660066361E5A
:100490000606067E00060606D6C6C6C600C6EEFEE0
:1004A000F6E6C6C600C6CEDE6666663C003C6666FC
:1004B000663E0606003E666666763C60003C666602
:1004C0003E1E3666003E66663C60663C003C660644
:1004D00018181818007E5A186666667C00666666EC
:1004E00066663C1800666666D6FEEEC600C6C6C6E0
:1004F000386CC6C600C6C66C3C181818006666661E
:10050000180C067E007E60301818187800781818CD
:10051000183060000000060C1818181E001E18186D
:1005200082000000001028440000007E000000004F
:100530000C00000000181818607C667C0000003C6D
:100540003E66663E000606066606663C0000003C07
:100550007C66667C00606060667E063C0000003C55
:100560000C3E0C0C00386C0C667C603C00007C6619
:100570003E666666000606061818183C000018005D
:100580003036361C00300030361E366600060666F1
:100590001818181800181818EEFED6D6000000C655
:1005A0007E6666660000003E6666663C0000003CB3
:1005B000663E060600003E66363CB0F000003C3663
:1005C000666606060000003E023C403E0000007CDD
:1005D0007E181818000018186666667C0000006611
:1005E00066663C1800000000D6D6D67C000000C627
:1005F0003C183C6600000066667C603C00000066BB
:1006000030180C3C0000003C0C18187000701818D2
:100610003018180E000E1818080808000000080806
:10062000360000000000005C000000000000000038
:100630001800423CE7A5A5E718007E00E7A5A5E75E
:1006400018003C42E7A5A5E70C000C0C1E3330183F
:100650003557000000005735110A04000080402083
:10066000182442000042241805183C7E07050703A1
:10067000F97C3E1F070507F12720F8D807015754DA
:10068000FE7C38100044EEFE080C0E060018280808
:10069000C8EC6E0600F09888000000000000000022
:1006A0000200000000240027002A000000000023B0
:1006B000002600290000000000250028002B00046F
:1006C00004040404040404020202020202030303F9
:1006D00003030301020408102040800102040810F3
:1006E0002001020408102000DB2C11241FBECFEFD4
:1006F000D8E0DEBFCDBF12E0A0E0B1E0ECE5F7E668
:1007000002C005900D92A43CB107D9F727E0A4ECF4
:10071000B2E001C01D92AF37B207E1F713E0C5E7C1
:10072000D3E004C02197FE010E943231C437D107C3
:10073000C9F70E947B250C94AC330C940000CF9336
:10074000883080F54091AD035091AE0321E030E058
:10075000672B81F4B90102C0660F771F8A95E2F713
:10076000CB0180959095842395239093AE0380933D
:10077000AD0318C0082E02C0220F331F0A94E2F7FF
:10078000242B352B3093AE032093AD039091570764
:10079000911108C0C82F0E943717BC018C2FCF9130
:1007A0000C946222CF910895BF92CF92DF92EF9284
:1007B000FF920F931F93CF93DF9300D0CDB7DEB797
:1007C000833008F081C0282F220F220F220F285FCC
:1007D000273108F026E1B62EF82EE82EEE0CEE0CAE
:1007E000EE0C30E0CC24C394E21610F58EEF8E0DA3
:1007F0008231D8F40E2D10E0F801E35CF94F9081BE
:10080000923098F4DD24D3948C2D8B2109F4D12CD3
:10081000000F111F913009F043C03C29F801ED5A37
:10082000F94F8D2D90E091838083CC0CE394DCCF45
:10083000F1100AC03C7FF8948BB1632F6095682358
:100840003B21632B6BB92AC081E0F8121AC02B2D13
:100850002323F89495B1832F8F7380958923922F4A
:100860009F73892B85B988B122952695269523708B
:10087000329536953695337030958323822B88B91F
:100880000DC03F70F89488B1632F660F660F6095B6
:1008900068233B21330F330F632B68B9789414C05E
:1008A000DD2009F4BBCFF801ED5AF94F8081918129
:1008B000019709F4B3CF62E08E2D2A8339830E9419
:1008C000FB162A813981AACF0F900F90DF91CF912B
:1008D0001F910F91FF90EF90DF90CF90BF90089500
:1008E0006F927F928F929F92AF92BF92CF92DF9240
:1008F000EF92FF920F931F93CF93DF931F92CDB789
:10090000DEB7982F3B01863108F004C1082F10E0B4
:10091000F801E35CF94F8081833009F490C08430A2
:1009200009F0F8C09250923108F0EDC0F801E35C94
:10093000F84FE080F12C6701CC0CDD1C603282E0C6
:1009400078070CF042C077FD05C0653B710524F4C3
:10095000DB0104C0A0E001C0A4EBB0E0F601EE0DA5
:10096000FF1DE95EF84F818128E830E04901881ACF
:10097000910887FD9394880C991C880C991C092C6C
:10098000000CAA08BB08828128E532E0281B310947
:1009900087FD3395220F331F220F331FA901330F19
:1009A000660B770B9A01AB01281939094A095B09D3
:1009B0000E94013024EB30E040E050E00E94D72F4D
:1009C000820E931EA41EB51E01C04B01F601EE0D52
:1009D000FF1DE95EF84F20812C3008F094C0318172
:1009E00088E890E0831B910937FD9395880F991F44
:1009F000880F991F8816990684F0828148E552E095
:100A0000481B510987FD5395440F551F440F551F2F
:100A1000C401481559050CF4CA010297880F991FA3
:100A20004FB7F89430E0F901EE0FFF1F2E0F3F1F74
:100A3000F901E457F94F928381834FBF64C093302B
:100A400049F08BEF890F823028F087EF890F8330D0
:100A500008F059C061E0892F99830E94FB169981A3
:100A60006114710411F460E005C08FEF6816710421
:100A700029F461E0892F0E94CB1645C0F801E45E9D
:100A8000FC4FE491E330F9F048F4E130B9F0E230A2
:100A9000A1F584B5806284BD68BC35C0E730E9F05B
:100AA000E83019F1E43049F580918000806280934C
:100AB000800070928B0060928A0025C084B58068A7
:100AC00084BD67BC20C080918000806880938000D6
:100AD000709289006092880016C08091B000806892
:100AE0008093B0006092B3000EC08091B00080622D
:100AF0008093B0006092B40006C080E8681671046C
:100B00000CF0B7CFB0CF000F111FF801ED5AF94F1D
:100B1000718260820F90DF91CF911F910F91FF90B2
:100B2000EF90DF90CF90BF90AF909F908F907F908D
:100B30006F9008959EEF980F923180F4E82FF0E0C7
:100B4000DF01A35CB94F9C91913041F4EE0FFF1F80
:100B5000ED5AF94F608371830C94CB160895FF9280
:100B60000F931F93CF93DF9300D0CDB7DEB7082F3D
:100B700010E0F801E758FC4F9081F62EF9220D5A4B
:100B8000184F411104C0F80190819F1511F12F2DCC
:100B900030E03A832983A091FA05B091FB051097C4
:100BA000B1F0682FED91FC9111976F706069019021
:100BB000F081E02DCD01099522E030E0AE014F5FDC
:100BC0005F4F62E070E08AEF95E00E94BF18F80185
:100BD000F0820F900F90DF91CF911F910F91FF90B6
:100BE0000895CF92DF92EF92FF920F931F93CF93CE
:100BF000DF931F92CDB7DEB7E82E6B01F42E6F3F67
:100C00008FEF780709F181E08093E304E092050516
:100C10001092E4041092060580E896E029830E9471
:100C20004A232981822F0E94D31FE0916704F0910B
:100C30006804E230F10550F0EE0FFF1FEE0FFF1FCA
:100C400035973197F1F702C0C12CD12C8091E20485
:100C50008111FCCF2F2D80E28F1508F420E281E076
:100C60008093E2048093E1049FEF9093E00410925C
:100C7000DF04920F9093DE048093BD048091BD0445
:100C80009E2D990F892B8093BD048091BC048130E7
:100C900061F41092BC048091BD048093BB008091EC
:100CA000BC0083FDF8CF85EC01C085EE8093BC00CD
:100CB0008091E2048130E1F38091DF04821710F427
:100CC0002091DF04AEEBB4E048E557E0FA018E2F47
:100CD000841B821718F48D918193F9CF10927907B4
:100CE000209378070F2D10E030E0021713071CF453
:100CF00087E591E005C02017310724F484E791E0EF
:100D00000E942A1EE0922703C0922803C12CD12CF6
:100D1000C016D10634F49091780780917907981322
:100D200012C0F394F3946F2D70E047E253E087E72D
:100D30000F90DF91CF911F910F91FF90EF90DF9077
:100D4000CF900C94DD1D80E896E00E94FE22F60113
:100D5000E95DFC4F82838FEFC81AD80AD9CFA82F3C
:100D6000B0E0A35CB84F9C91292F30E0F901EE0F61
:100D7000FF1F2E0F3F1FF901E95EF84FE081F0E001
:100D80009F01220F331FE20FF31FE457F94F8081B9
:100D90008F7B808380913B07981306C0992379F05D
:100DA000915090933B070BC0882349F0E0913C079A
:100DB000EF5FE0933C07F0E0E65EFC4F90838FEF3F
:100DC0008C930895DB0190913B079C30A8F53091FE
:100DD0003C07682F70E0332369F0E32FF0E0E65E14
:100DE000FC4F8081FB01E35CF84F808331503093EE
:100DF0003C0707C0FB01E35CF84F90839F5F909333
:100E00003B07FB01E35CF84F808190E09C01220FDF
:100E1000331F820F931F1A161B0634F4141615067F
:100E20001CF49A01AD0104C020E639E040E252E032
:100E3000895E984F0C940D2480E991E00C942A1E51
:100E40008F929F92AF92BF92CF92DF92EF92FF92DA
:100E50000F931F93CF93DF931F92CDB7DEB7C82EAA
:100E6000D12C960126543A4F4901F901ED57FF4F15
:100E700090819F3709F44DC1963041F49091560707
:100E8000992321F06630710509F025C17B01182FE7
:100E90000EEF080F0231F8F464307105E1F0F6014D
:100EA000E35CF84F80818C30B0F490E0FC01EE0FF1
:100EB000FF1F8E0F9F1FFC01E95EF84F808190E0BD
:100EC000FC01EE0FFF1F8E0F9F1FFC01E457F94F2F
:100ED000808186FD06C192EF910F983068F461E041
:100EE00070E082E0E816F10411F060E070E0892F14
:100EF00099830E949F039981023118F5E12FE695AD
:100F0000E695E695812F8770F0E0E758FC4FE114F5
:100F1000F10421F02BE0E216F10449F421E030E085
:100F200001C0220F8A95EAF78081282B09C021E0B1
:100F300030E001C0220F8A95EAF7209580812823AE
:100F400020835601AA0CBB1CF501ED5AF94F118202
:100F500010823CE0E316F10408F0ACC0F701EC5C51
:100F6000FF4F0C943231983008F0D3C0023120F496
:100F700060E0812F0E94FB16F401ED57FF4F808146
:100F80008F3709F4C6C082E093C0023108F0C1C0B7
:100F900060E0812F0E94FB16F401ED57FF4F808126
:100FA0008F3709F4B6C01082B4C0023108F0B1C066
:100FB00062E0812F0E94FB16F401ED57FF4F808104
:100FC0008F3711F08BE08083F501ED5AF94F81E006
:100FD00090E0918380839DC0023108F09AC0F401B3
:100FE000ED57FF4F8081833021F460E0812F0E9414
:100FF000CB1661E0812F0E94FB16F401ED57FF4FE5
:1010000080818F3709F485C081E052C0133049F0E8
:101010008BEF810F823028F087EF810F833008F04B
:1010200078C061E0812F0E94FB1661E0812F0E9451
:10103000FB1660E0812F0E94CB16F401ED57FF4FA5
:1010400080818F3709F465C083E032C0023108F037
:1010500060C0F401ED57FF4F80818F3711F084E0BD
:101060008083F601E35CF84F80818F3FF1F190E0DF
:10107000FC01EE0FFF1F8E0F9F1FFC01E95EF84F72
:10108000808190E0FC01EE0FFF1F8E0F9F1FFC017F
:10109000E457F94F808186FD3CC027C012511230C1
:1010A000C0F5F401ED57FF4F80818F3791F186E055
:1010B00080832FC084EA91E00F90DF91CF911F9140
:1010C0000F91FF90EF90DF90CF90BF90AF909F90E7
:1010D0008F900C942A1E109256079FEF9093050153
:1010E000D5CE812F0E94AF06F6CE4FEF5FEF6FEFA8
:1010F0007FEF812F0F90DF91CF911F910F91FF9084
:10110000EF90DF90CF90BF90AF909F908F900C9416
:10111000E2060F90DF91CF911F910F91FF90EF901A
:10112000DF90CF90BF90AF909F908F9008958F9257
:101130009F92AF92BF92CF92DF92EF92FF920F9366
:101140001F93CF93DF93EC01912C00E810E084E62D
:10115000882EA92CB12C8C819D81A816B906D8F5B2
:10116000B501CE010E947F20B501CE010E947F20F3
:10117000FC01C080C7FCC394C5940C2C000CDD0896
:10118000EE08FF08B501CE010E947F20FC0180819E
:101190009801281B310987FD3395B701A601829E6E
:1011A000C001839E900D11240E947F1BB501CE01CA
:1011B0000E947F20FC01608167FD6F5F6595062EB0
:1011C000000C770B880B990B0E9473178DE00E941F
:1011D000DB219394BECFDF91CF911F910F91FF90B0
:1011E000EF90DF90CF90BF90AF909F908F90089539
:1011F0000F931F93CF930E94AD17609317037093C3
:1012000018038093190390931A030091130310910C
:1012100014032091150330911603DC01CB01801BD0
:10122000910BA20BB30BC397A105B10508F450C0F5
:10123000809103019091770360910401C62F899FEB
:10124000C00D1124C093040198ED9C0F953618F041
:10125000819580930301809143078F3F99F190E03E
:10126000FC01EE0FFF1F8E0F9F1FFC01E95EF84F80
:10127000808190E0FC01EE0FFF1F8E0F9F1FFC018D
:10128000E457F94F808186FF1DC0C83220F0CD3869
:1012900018F0CCE801C0C8E26C2F70E086E00E9434
:1012A00070048091170390911803A0911903B091D5
:1012B0001A038093130390931403A0931503B09320
:1012C000160306C064E070E086E00E942007DDCFD0
:1012D000CF911F910F910895CF93C82F2091400770
:1012E0002F3FE1F030E0F901EE0FFF1F2E0F3F1FFF
:1012F000F901E95EF84F208130E0F901EE0FFF1FA0
:101300002E0F3F1FF901E457F94F808186FF06C079
:101310006C2F70E083E0CF910C94700464E070E077
:1013200083E00E942007F4CFCF93C82F20913F077E
:101330002F3FE1F030E0F901EE0FFF1F2E0F3F1FAE
:10134000F901E95EF84F208130E0F901EE0FFF1F4F
:101350002E0F3F1FF901E457F94F808186FF06C029
:101360006C2F70E082E0CF910C94700464E070E028
:1013700082E00E942007F4CFCF93C82F209142072C
:101380002F3F19F130E0F901EE0FFF1F2E0F3F1F25
:10139000F901E95EF84F208130E0F901EE0FFF1FFF
:1013A0002E0F3F1FF901E457F94F808186FF0DC0D2
:1013B000C83220F0CD3818F0CCE801C0C8E26C2F5C
:1013C00070E085E0CF910C94700464E070E085E0FB
:1013D0000E942007EDCFCF93C82F209141072F3FC8
:1013E00019F130E0F901EE0FFF1F2E0F3F1FF90139
:1013F000E95EF84F208130E0F901EE0FFF1F2E0F5C
:101400003F1FF901E457F94F808186FF0DC0C832B4
:1014100020F0CD3818F0CCE801C0C8E26C2F70E0A5
:1014200084E0CF910C94700464E070E084E00E944A
:101430002007EDCF0F931F930E94AD1760930F030A
:1014400070931003809311039093120300910B0388
:1014500010910C0320910D0330910E03DC01CB01A0
:10146000801B910BA20BB30B4A97A105B10550F15C
:101470008091020198ED980F953628F09091010126
:101480009195909301012091010190917803299FFA
:10149000800D1124809302010E94EB0980910201CA
:1014A0000E94BC0980910F0390911003A091110339
:1014B000B091120380930B0390930C03A0930D0340
:1014C000B0930E031F910F9108958F929F92AF9248
:1014D000BF92CF92DF92EF92FF921F93CF93DF9351
:1014E000182F0E94AD176B017C016093E40270938A
:1014F000E5028093E6029093E702C091E3028091B7
:101500003D04C81738F0109280031092E302109245
:101510003D04DBC08091E20281117FC0D0E0112345
:1015200089F1209108013091090140910A015091FF
:101530000B0160E070E08AE794E40E9471304B0197
:101540005C01FE01ED51FC4F8081682F70E080E06E
:1015500090E00E94DC2E9B01AC01C501B4010E9409
:1015600071300E94E3306093DE027093DF0280935B
:10157000E0029093E102CC0FDD1FCF5FDB4F88814B
:10158000998135C08091DB02C80FD11DFE01E85A58
:10159000FD4F1491209108013091090140910A01F9
:1015A00050910B0160E070E08AE794E40E94713092
:1015B0004B015C01612F70E080E090E00E94DC2E26
:1015C0009B01AC01C501B4010E9471300E94E3305F
:1015D0006093DE027093DF028093E0029093E10259
:1015E000FE01EE0FFF1FE053FF4F85919491909302
:1015F000DD028093DC024091DE025091DF026091B7
:10160000E0027091E1028091DC029091DD020E9483
:101610007F1B81E08093E20234C02091D60280904B
:10162000D7029090D802A090D902B090DA0221118E
:1016300031C06091DE027091DF028091E0029091F2
:10164000E102A7019601281939094A095B096217C5
:10165000730784079507C8F50E94DC2E2AE939E94B
:1016600049E95EE30E94192F0E94E3306093D202A1
:101670007093D3028093D4029093D50281E080933B
:10168000D602C092D702D092D802E092D902F0924C
:10169000DA021BC0C818D908EA08FB088091D202F8
:1016A0009091D302A091D402B091D5028C159D05E2
:1016B000AE05BF0550F48DE00E94DB211092D602EA
:1016C0001092E202CF5FC093E302DF91CF911F91AE
:1016D000FF90EF90DF90CF90BF90AF909F908F9052
:1016E000089540E090E0242F30E0F901EE0FFF1F55
:1016F000E053FF4F981739F0459154912F5F3F4FBA
:10170000420F9F5FF0CF8591949180933D044F5F8E
:101710004093DB020895CF92DF92EF92FF92CF9336
:101720000E94AD176B017C016093CE027093CF02D3
:101730008093D0029093D102C091CD0280913E045B
:10174000C81738F0109284031092CD0210923E0414
:1017500051C08091CC0281112BC0EC2FF0E0E15CF4
:10176000FB4F2081422F469550E060E070E04093AF
:10177000C8025093C9026093CA027093CB0280E8FA
:1017800090E0821B910924E6FC012E9FC0012F9F4F
:10179000900D11240E947F1B81E08093CC02C092A7
:1017A000C402D092C502E092C602F092C70222C0E3
:1017B0008091C4029091C502A091C602B091C70267
:1017C000C81AD90AEA0AFB0A8091C8029091C90294
:1017D000A091CA02B091CB028C159D05AE05BF0544
:1017E00048F48DE00E94DB211092CC02E1E0EC0F86
:1017F000E093CD02CF91FF90EF90DF90CF900895CE
:101800007F928F929F92AF92BF92CF92DF92EF9290
:10181000FF920F931F93CF93DF93122FD32EC42EDB
:10182000B52EA62E972E882E792E88E3E82EF12C41
:10183000C0E0D0E0809115079091160718161906A0
:10184000BCF4212F3D2D4C2D5B2D6A2D792D882D3B
:10185000972D0E2D0E945331FE01E154F94F208B3C
:101860004C2F4F5F60E070E08FEB96E00E940D1808
:10187000219688E0E81AF108C830D105D9F6DF9141
:10188000CF911F910F91FF90EF90DF90CF90BF907D
:10189000AF909F908F907F9008952F923F924F929C
:1018A0005F926F927F928F929F92AF92BF92CF92F0
:1018B000DF92EF92FF920F931F93CF93DF93CDB7F9
:1018C000DEB72C970FB6F894DEBF0FBECDBF182F32
:1018D0000E94AD174B015C016093070370930803EE
:1018E0008093090390930A031123B9F11092060320
:1018F00081E080930001109205031092FD02109286
:10190000FE021092FF021092000310920103109247
:10191000020310920303109204031092F502109236
:10192000F6021092F7021092F8021092F902109249
:10193000FA021092FB021092FC021092ED02109239
:10194000EE021092EF021092F0021092F102109249
:10195000F2021092F3021092F4028091E902909147
:10196000EA02A091EB02B091EC02A5019401281BC0
:10197000390B4A0B5B0B293C31054105510508F435
:101980000DC180910503883068F08091060390E0D6
:1019900001966091BA0370E00E941E3180930603A5
:1019A00010920503E091060380910001E81709F405
:1019B0003FC0E0930001F0E0E554FC4F808180528D
:1019C0008093E80238E0839FC0011124FC01E05DB0
:1019D000FC4F4590559065907490FC01EC5CFC4F79
:1019E000C590D590E590F490A301920160E070E07D
:1019F00080E090E000E20E943831B22FA32FF42F54
:101A0000E52F3B0197018601BC29B093FD02A12B74
:101A1000A093FE02F22BF093FF02E32BE09300036E
:101A20006093010370920203809303039093040375
:101A30002090F5023090F6024090F7025090F802A4
:101A40006090F9027090FA02C090FB02E091FC02F3
:101A5000E98398E3E92EF12CD12C10E01C861A8240
:101A6000B0E0A0E0F0E0E0E02D2D312F4C855A8170
:101A70006B2F7A2F8F2F9E2F08E00E943831D22EA5
:101A8000132FFA01B62FA72F8A879B879101A201F6
:101A9000B3018C2D99810E2D0E94533130E0359584
:101AA0002795932F990F990BD22A132BE92BEC87AB
:101AB000F92BFA83B92BA92BFA85F92BEB85E92BA6
:101AC00028E0E21AF10838EFE3163FEFF30661F67B
:101AD000C090050321E031E041E051E061E071E0B8
:101AE00081E091E00C2D0E9438310091FD0220230D
:101AF0000091FE0230230091FF0240230091000379
:101B00005023009101036023009102037023709021
:101B10000303009104030F2EF7E0EF2EF12CF02DBC
:101B2000EC18F108872190230E2D0E943831209364
:101B3000ED023093EE024093EF025093F002609377
:101B4000F1027093F2028093F3029093F4022D2934
:101B5000312B1C85412B1A81512B6B2B7A2B8F2B10
:101B60009E2B2093F5023093F6024093F702509398
:101B7000F8026093F9027093FA028093FB0290934B
:101B8000FC020E94000CC394C09205038092E902FB
:101B90009092EA02A092EB02B092EC022C960FB661
:101BA000F894DEBF0FBECDBFDF91CF911F910F9193
:101BB000FF90EF90DF90CF90BF90AF909F908F906D
:101BC0007F906F905F904F903F902F9008952F924D
:101BD0003F924F925F926F927F928F929F92AF92BD
:101BE000BF92CF92DF92EF92FF920F931F93CF930A
:101BF000DF93CDB7DEB72D970FB6F894DEBF0FBEDB
:101C0000CDBF182F6AE00E941231282E312CD1014D
:101C100083E0AA0FBB1F8A95E1F7FD01E058FF4F53
:101C200085909590A590B4909401A50160E070E036
:101C300080E090E000E20E94383149015A012B0116
:101C40003C01FD01EC57FF4FC590D590E590F49015
:101C500026EFA1012403D001259FB00D1124A10F6F
:101C6000B11D93E0AA0FBB1F9A95E1F7FD01E05863
:101C7000FF4F6591759185919491AB01BC019A01DB
:101C8000AB0160E070E080E090E00E943831042F0A
:101C90005D87362E272E8B839C83FD01EC57FF4FEB
:101CA0006591759185919491AB01BC01E42FE22B74
:101CB000F52FF32BA62FA02BB72F2D85B22BA70125
:101CC00096018C28932AA42A5B2994014A2DB201FB
:101CD000C30104E00E9453312E2B3F2B4A2B5B2B78
:101CE00063297229AB818A2BBC819B2B0E94000C3B
:101CF0001093B80381E08093B9032D960FB6F89442
:101D0000DEBF0FBECDBFDF91CF911F910F91FF902E
:101D1000EF90DF90CF90BF90AF909F908F907F908B
:101D20006F905F904F903F902F9008956F927F92A9
:101D30008F929F92AF92BF92CF92DF92EF92FF92DB
:101D40000F931F93CF93DF93F82E88E0F89ED00176
:101D50001124FD01E05DF94F459155916591749114
:101D60003A014B019A01A40160E070E080E090E04C
:101D700000E20E943831D22FC32EB42EFD01EC5C5C
:101D8000F94F0591159125913491D02BC12AB22A92
:101D9000532B2D2F3C2D4B2D0E94000CF092B7039E
:101DA0001092B903DF91CF911F910F91FF90EF90A7
:101DB000DF90CF90BF90AF909F908F907F906F906B
:101DC00008958F929F92AF92BF92CF92DF92EF923F
:101DD000FF920F931F93CF93DF93CDB7DEB7E497B6
:101DE0000FB6F894DEBF0FBECDBFD62E8A0189365E
:101DF00009F4ADC2F0F58B3009F453C488F589308D
:101E000009F4D1C208F089C3883009F0D5C561E072
:101E100070E08BE00E94200760E070E08AE00E94A2
:101E200020070E94E01E8C0180EF0E94C61F81E700
:101E30000E94C61FB80180E090E029E330E040E056
:101E400050E00E94403033274427552719A28E01C5
:101E50000F5D1F4F7AE0C72ED12CE12CF12C89C2E7
:101E60008D3009F44DC408F438C48E3009F493C59C
:101E7000A3C5803709F44FC188F48D3609F424C214
:101E80008F3609F4A5C18B3609F096C580EF0E9404
:101E9000C61F8CE60E94C61F10E0E2C1883709F415
:101EA000ECC08A3709F47DC1863709F085C5DA01AF
:101EB00011962C91922F987125FF03C086E792E02E
:101EC0005DC0FA01808126FB222720F931E023271B
:101ED000983081F170F491116FC591E09093E30413
:101EE000809305051092E4041092060592E0F92E05
:101EF00007C0903109F43CC0983109F470C05CC54A
:101F0000FD1480F4F801EF0DF11D81816081F0E88E
:101F10008F9F6019112480E896E00E944A23F39471
:101F2000F394EECF81E00E94D31F83E191E001970B
:101F3000F1F742C542816381B6E0E0E8DB1210C0F0
:101F40006E9FB0011124640F711DD80115969C91EC
:101F5000159714964C91B0E89B9F4019112405C029
:101F60006E9F401911246FEF7FEF0E94F10524C589
:101F7000E0910501E7302CF086E992E00E942A1EEC
:101F80001BC5DA0112969C91129713964C91B6E0FC
:101F9000F0E86B1310C04F9FA0011124490F511D91
:101FA000D80115963C91159714969C91B0E83B9FEB
:101FB0009019112405C04F9F901911244FEF5FEF26
:101FC000EF5FE093050135E0E302F0011124EB57E8
:101FD000FC4F80835283418393832483EDC42091FB
:101FE0000501121624F08FEF80930501E5C490E0FF
:101FF000622F022E000C770B35E0492F50E064175A
:10200000750774F0349FF001359FF00D1124EB57E4
:10201000FC4F4081481302C085E026C09F5FEDCF92
:1020200090E0FACF9830F8F4FA0131968E9FD00103
:102030008F9FB00D1124AB57BC4F3C91849FF00192
:10204000859FF00D1124EB57FC4F308311964D9175
:102050005C9112975283418313963C91139733837B
:1020600014963C9134839F5F492F50E064177507A5
:10207000CCF62150209305019FC4DA012C911196D2
:102080008C91B1E0B61760F4E0E88E9FC001112496
:10209000820F911D009721F090936804809367044C
:1020A00080915607811188C410E08EEE810F823036
:1020B00028F466E070E0812F0E9420071F5F163130
:1020C000A1F781E080935607109279071092780764
:1020D0001092E404109206051092E2048093E10449
:1020E0001092BC0461E082E10E94CB1661E083E1C2
:1020F0000E94CB168091B9008E7F8093B9008091A9
:10210000B9008D7F8093B90088E48093B80085E49E
:102110008093BC0051C4F4E0F61708F04DC4DA0116
:10212000FC901196DC9011971296EC9012971396F2
:10213000CC90139714961C918EEF8F0D823108F07E
:102140003BC4EF2DF0E0E35CF84F20812C30B0F47D
:1021500030E0F901EE0FFF1F2E0F3F1FF901E95E7E
:10216000F84F208130E0F901EE0FFF1F2E0F3F1FC7
:10217000F901E457F94F808186FD1AC4B0E81B9F2E
:10218000A00111244C0D511DE0E8EE9EB001112478
:102190006D0D711D8F2D0E94E20664E070E08F2DA1
:1021A00099C2F1E0F61708F007C4DA012C911196F4
:1021B0008C91B0E88B9FC0011124820F911D009774
:1021C00011F481E090E09093070180930601F4C33D
:1021D000E1E0E61708F0F0C3DA0111966C9170E0C7
:1021E000B2E0DB16B1F0FA018281F0E88F9FC00106
:1021F0001124682B792B23E0D21659F0DA011396BB
:102200008C9190E090E4899F902D88271124682B71
:10221000792BF80180810E947004CEC3133009F03D
:1022200048C083E00E94C61F88E00E94C61F02319A
:1022300030F484E00E94C61F8EE00E94C61F8EEE1E
:10224000810F823030F486E00E94C61F81E00E9438
:10225000C61F8FE70E94C61F1F5F163109F49FC07B
:102260000EEF010F0231D0F480E00E94C61F81E022
:102270000E94C61F8BE00E94C61F81E00E94C61FFD
:1022800081E00E94C61F81E00E94C61F133031F416
:1022900085E00E94C61F81E00E94C61F82EF810F69
:1022A000883008F0BBCF82E00E94C61F8AE00E94FF
:1022B000C61F8BEF810F823008F4B3CF87EF810FF9
:1022C000833008F0B4CFADCF662309F475C3DA01CB
:1022D0000C9180EF0E94C61F8EE60E94C61F802FC1
:1022E0000E94C61F063108F05AC010E0F801E35CF6
:1022F000F94F80810E94C61F000F111FF801ED5A8F
:10230000F94F7F0180818F770E94C61FD7018D9181
:102310009C919C012078232B39F0880F892F881FEE
:10232000990B8F770E94C61FF801ED5AF94F8081F3
:1023300091819C012227307C232B89F1990F880BF6
:10234000990F982F881F8F770E94C61F28C080EF93
:102350000E94C61F8AE60E94C61F12EF183010F4B2
:10236000812F01C08FE70E94C61F1F5F1830B1F791
:1023700016C0CA01B901A70196010E944030605DF4
:10238000F80162938F01211531054105510589F747
:10239000CF010E94CE1E8CEB91E00E94CE1E87EFF3
:1023A0000E94C61F09C3DA012C91223009F450C0E3
:1023B000A0F42223A1F1213009F0FEC2FA018181AB
:1023C00065E00E941231892F2CAB0E94710B109294
:1023D0007F032CA920938003EFC2233009F461C04E
:1023E000243009F0E9C2FA01618170E0762F662796
:1023F0008281682B072E000C880B990B0E94DE2E21
:1024000020E030E048EC52E40E9471306093080113
:102410007093090180930A0190930B01CDC280E073
:1024200090E021E0280F2D1530F020933E0481E04C
:1024300080938403C1C2019688329105B1F3F801FB
:10244000E80FF91F2081FC01E15CFB4F2083E9CFFD
:1024500010923D0491E09D1510F580913D048E3160
:10246000F0F4E82EF12CA701440F551F4F5F5B4F8E
:10247000D801A90FB11D11962C9111976C9130E0E4
:10248000362BFA013183208312962C91F701ED51FE
:10249000FC4F20838F5F80933D049D5FDCCF81E004
:1024A00037C0DA0111968C91119790E0982F882708
:1024B00012962C911297822B909302048093010420
:1024C00013966C91139770E0762F662714968C9173
:1024D000682B072E000C880B990B0E94DE2E9B01A7
:1024E000AC0160E070E08AE794E40E9471302091D2
:1024F00008013091090140910A0150910B010E949D
:1025000071300E94E3306093E30381E080933D04E7
:1025100080937F03809380034FC2DA018C918330D4
:1025200009F46DC028F4813079F0823099F044C20A
:10253000853009F487C008F46BC0863009F03CC2CE
:10254000109283038DE055C0FA0181818E3008F02E
:1025500033C24FC0DA0111968C918130C1F4FA0177
:102560003296ABEBB3E082E08D1530F4883221F087
:1025700091919D938F5FF8CFDA94DA94D092BA0359
:1025800081E00E944D0C81E08093830315C210927C
:1025900083031091B903113079F148F1123009F039
:1025A0000BC2A0916904E8E0AE9FD0011124FD01A7
:1025B000E05DF94F85909590A590B4909401A501A8
:1025C00060E070E080E090E000E20E943831FD01C0
:1025D000EC5CFC4F85909590A590B4902829392902
:1025E0004A295B290E94000C1093B903E5C1809130
:1025F000B7030E94960EE0C18091B80306C0DA01CD
:1026000011968C91843608F0D7C10E94E70DD4C191
:10261000B9E06B13D1C1FA013196DA01199620E0C5
:1026200030E040E050E060E070E080E090E008E002
:102630000E9438311191212BEA17FB07C1F70E9444
:10264000000CBAC1FA014181483008F0B5C12281BD
:10265000283008F0B1C13381809115079091160799
:10266000181619060CF0A8C1E42FF0E080E890E0FD
:1026700002C0959587952A95E2F7E154F94F3323E7
:1026800019F09089892B03C0809590898923808BCC
:102690004F5F208960E070E08FEB96E00E940D189C
:1026A0008BC1F2E06F1388C1DA0111968C911197FA
:1026B000813031F49C9190937803809382037CC1A4
:1026C0001092820361E070E085E00E94200761E0E3
:1026D00070E084E00E9420076FC1B2E06B136CC110
:1026E000FA018181813031F4908190937703809356
:1026F000810362C11092810361E070E086E0EACF5D
:1027000024E0F22E6DEA72E0CE0101960E94A32130
:10271000CE0101960E949708CE0101960E94952154
:1027200068EE73E080E090E00E947317FA94F11075
:10273000E9CF8AEB91E00E94CE1E98EE892E93E0BD
:10274000992EA12CB12C8092210590922205A09265
:102750002305B0922405CE0188960E94B82187EB0C
:1027600091E00E94CE1E8092210590922205A092B7
:102770002305B0922405CE0182960E94B8217E01E5
:10278000FEE2EF0EF11C6FEB71E0C7010E94A32186
:10279000B701CE0188960E949120811117C06FEB7E
:1027A00071E0CE0101960E94A321BE016F5F7F4FB1
:1027B000CE0182960E949120CC24C394811101C045
:1027C000C12CCE0101960E94952102C0CC24C39455
:1027D000C7010E949521CC2009F4C6C0D8018C9174
:1027E000813079F0823009F0BFC062EC71E0CE0137
:1027F00001960E94A3215801F2E0AF0EB11C12E035
:1028000035C06EE672E0CE0101960E94A321580108
:10281000BFEFAB1ABB0A11E01D1550F51A3041F19C
:10282000F50181915F018EA71FA641E050E0B7013D
:10283000CE0101960E94AC201F5FEECF1A30C1F08E
:10284000D5018D915D014AE0B70190E00E94A72E6D
:10285000F70101900020E9F73197AF014E195F09A8
:10286000B701CE0101960E94AC201F5F1D1530F309
:102870006FEB71E0C7010E94A321B701CE018896DA
:102880000E949120182FC7010E9495211123D1F198
:102890006CEB71E0C7010E94A3214AA95BA96EA558
:1028A0007FA5CE0101960E94AC20C7010E94952110
:1028B000CE0101960E94C51E88EB882E8BE0982ED3
:1028C000A12CB12C8092210590922205A092230583
:1028D000B092240564EF71E080E090E00E947317ED
:1028E000CE0101960E94C51E80922105909222057C
:1028F000A0922305B092240564EF71E080E090E09F
:102900000E9473176FEB71E0C7010E94A321B7010A
:10291000CE0182960E949120182FC7010E94952116
:102920001123B1F0CE0101960E94C51E88EB9BE0F9
:10293000A0E0B0E08093210590932205A0932305A9
:10294000B093240564EF71E080E090E00E9473177B
:1029500067EA72E0C7010E94A321C7010E9497089D
:10296000C7010E9495210AC060EB72E0CE0101967A
:102970000E94A321CE0101960E949708CE010196E4
:102980000E949521CE0182960E949521CE018896C3
:102990000E94952111C0FA01808181110E94940941
:1029A000D80111968C91882339F00E946C0904C0DB
:1029B0008F2D0E94AF06E2CBE4960FB6F894DEBFEF
:1029C0000FBECDBFDF91CF911F910F91FF90EF9080
:1029D000DF90CF90BF90AF909F908F9008958330FD
:1029E00020F5282F30E0F901E458FC4F6083672B75
:1029F000E1F0F901E758FC4F9081811103C069B102
:102A00006C7F0FC0813049F463B136B140E4349F2C
:102A1000900111246F73622B04C066B16C736695CC
:102A20006695692341E00C94AF050895FC01538D30
:102A3000448D252F30E0842F90E0821B930B541798
:102A400010F0CF96089501970895FC01918D828D25
:102A5000981761F0828DDF01A80FB11D5D968C91F2
:102A6000928D9F5F9F73928F90E008958FEF9FEFFD
:102A70000895FC01918D828D981731F0828DE80FB9
:102A8000F11D858D90E008958FEF9FEF0895FC0173
:102A9000918D228D892F90E0805C9F4F821B910940
:102AA0008F73992708958DE195E00E94471521E0E5
:102AB000892B09F420E0822F0895FC01848DDF0129
:102AC000A80FB11DA35ABF4F2C91848D90E00196A1
:102AD0008F739927848FA689B7892C93A089B18990
:102AE0008C9180648C93938D848D981306C002889A
:102AF000F389E02D80818F7D80830895EF92FF928E
:102B00000F931F93CF93DF93EC0181E0888F9B8D10
:102B10008C8D981305C0E889F989808185FD24C0D2
:102B2000F62E0B8D10E00F5F1F4F0F731127E02E55
:102B30008C8DE8120CC00FB607FCFACFE889F98932
:102B4000808185FFF5CFCE010E945D15F1CF8B8D81
:102B5000FE01E80FF11DE35AFF4FF0820B8FEA8967
:102B6000FB898081806207C0EE89FF896083E889E4
:102B7000F98980818064808381E090E0DF91CF914A
:102B80001F910F91FF90EF900895CF93DF93EC0189
:102B9000888D8823C9F0EA89FB89808185FD05C07D
:102BA000A889B9898C9186FD0FC00FB607FCF5CFB7
:102BB000808185FFF2CFA889B9898C9185FFEDCFFF
:102BC000CE010E945D15E7CFDF91CF91089580E09F
:102BD00090E0892B29F00E94531581110C9400007C
:102BE0000895E0917503F0917603309709F0099408
:102BF0000895862F642FE0917303F091740330974A
:102C000011F0A901099408950895862FE0916B03AE
:102C1000F0916C03309711F0BA0109940895862F52
:102C2000E0916D03F0916E03309711F0BA010994B1
:102C30000895862FE0916703F0916803309711F0B3
:102C4000BA0109940895862FE0916903F0916A030F
:102C5000309711F0BA0109940895862FE0916F031F
:102C6000F0917003309711F0BA0109940895862FFE
:102C7000E0917103F0917203309711F0BA01099459
:102C800008950E947A33009721F0805C9F4F0C9446
:102C90009C1F08951F920F920FB60F9211242F932D
:102CA0003F934F935F936F937F938F939F93AF93D4
:102CB000BF93EF93FF938DE195E00E945D15FF9127
:102CC000EF91BF91AF919F918F917F916F915F91A4
:102CD0004F913F912F910F900FBE0F901F9018951D
:102CE0001F920F920FB60F9211242F938F939F93E1
:102CF000EF93FF93E0912D05F0912E058081E091F7
:102D00003305F091340582FD12C090818091360523
:102D10008F5F8F7320913705821751F0E091360550
:102D2000F0E0E35EFA4F958F8093360501C0808115
:102D3000FF91EF919F918F912F910F900FBE0F9068
:102D40001F901895833081F028F4813099F08230FB
:102D5000A1F008958730A9F08830B9F08430D1F41B
:102D6000809180008F7D03C0809180008F77809359
:102D70008000089584B58F7702C084B58F7D84BDAF
:102D800008958091B0008F7703C08091B0008F7D4F
:102D90008093B00008951F93CF93DF93282F30E0E6
:102DA000F901E45EFC4F8491F901ED52F94FD491A1
:102DB000F901E154F94FC491CC23C9F0162F8111C8
:102DC0000E94A216EC2FF0E0EE0FFF1FEB54F94F1C
:102DD000A591B4918FB7F894111105C09C91ED2F76
:102DE000E095E92302C0EC91ED2BEC938FBFDF91CE
:102DF000CF911F910895CF93DF9390E0FC01ED52A6
:102E0000F94F2491FC01E154F94F8491882361F139
:102E100090E0880F991FFC01EF55F94FC591D491AF
:102E2000FC01EB54F94FA591B491611109C09FB712
:102E3000F8948881209582238883EC912E230BC0FF
:102E4000623061F49FB7F8943881822F8095832394
:102E50008883EC912E2B2C939FBF06C08FB7F894DC
:102E6000E8812E2B28838FBFDF91CF9108958E307C
:102E700008F08E508770806480937C0080917A0087
:102E8000806480937A0080917A0086FDFCCF8091E7
:102E900078002091790090E0922B08953FB7F89444
:102EA0008091B8049091B904A091BA04B091BB0488
:102EB00026B5A89B05C02F3F19F00196A11DB11D95
:102EC0003FBFBA2FA92F982F8827820F911DA11DD0
:102ED000B11DBC01CD0142E0660F771F881F991F0D
:102EE0004A95D1F708958F929F92AF92BF92CF9259
:102EF000DF92EF92FF926B017C010E944E174B0113
:102F00005C01C114D104E104F104F1F00E944E17F8
:102F1000DC01CB0188199909AA09BB09883E9340B5
:102F2000A105B10570F321E0C21AD108E108F1084A
:102F300088EE880E83E0981EA11CB11CC114D10438
:102F4000E104F10419F7DDCFFF90EF90DF90CF900F
:102F5000BF90AF909F908F9008952FB7F894609195
:102F6000B4047091B5048091B6049091B7042FBF5A
:102F700008951F920F920FB60F9211242F933F9333
:102F80008F939F93AF93BF938091B4049091B504B6
:102F9000A091B604B091B7043091B30423E0230F9D
:102FA0002D3720F40196A11DB11D05C026E8230F81
:102FB0000296A11DB11D2093B3048093B404909395
:102FC000B504A093B604B093B7048091B80490916F
:102FD000B904A091BA04B091BB040196A11DB11D22
:102FE0008093B8049093B904A093BA04B093BB043F
:102FF000BF91AF919F918F913F912F910F900FBEF5
:103000000F901F9018951F920F920FB60F921124D8
:103010000F900FBE0F901F9018952F923F924F92D6
:103020005F926F927F928F929F92AF92BF92CF9258
:10303000DF92EF92FF920F931F93CF93DF9300D015
:10304000CDB7DEB78C0149832A83660F771FF8015D
:10305000EA5AFF4FE080F180EE0CFF1CF801CF012F
:10306000801B910B8E159F0514F41192F8CF898166
:10307000F801E60FF71F81838A818083580184E578
:10308000A80EB11C60E0F50180810E94CB16E00E15
:10309000F11E4801F2E58F0E911C380180E5680EA3
:1030A000711CC701801B910B1816190624F5F70136
:1030B000C2907F01F4013080F301208087E0482E28
:1030C000512CD12CB601042C02C0759567950A9439
:1030D000E2F761707727822D0E94CB1661E0832D85
:1030E0000E94CB1660E0832D0E94CB16F1E04F1AB0
:1030F000510840F7D6CF61E0F50180810F900F9025
:10310000DF91CF911F910F91FF90EF90DF90CF90C3
:10311000BF90AF909F908F907F906F905F904F90F7
:103120003F902F900C94CB16CF92DF92EF92FF92AC
:103130000F931F93CF93DF938C017B016B0183E08F
:10314000CC0CDD1C8A95E1F7C1E0D0E0FE01EC0D6E
:10315000FD1DE00FF11F178620E04C2FB701C801BD
:103160000E940D182196C930D10581F7DF91CF91CA
:103170001F910F91FF90EF90DF90CF9008952F92C5
:103180003F925F926F927F928F929F92AF92BF9287
:10319000CF92DF92EF92FF920F931F93CF93DF9323
:1031A0007C013901DA015C90232B19F466246A94BE
:1031B000762C8A011A01260E371EC0E0D0E0812C41
:1031C000912C87E0C82ED12C0215130509F444C0B8
:1031D0008614970408F068C05801F7018081918136
:1031E000FC01A081B181F80121918F01E22F0C2E09
:1031F00001C0EE0F0A94EAF7652D6E2B6F77ED9103
:10320000FC9109958FEF881A980AD5016C9170E0AE
:10321000C6018C1B9D0B02C0759567958A95E2F7D8
:10322000562E2196C730D10578F28614970461F2A4
:10323000F70180819181DC01ED91FC91652D6F7723
:103240000190F081E02D0995BFEF8B1A9B0A551C68
:103250005524551C2797E6CF209731F18614970403
:1032600018F5F70180819181DC01ED91FC9161E01D
:1032700070E001C0660FCA95EAF7615065210190C0
:10328000F081E02DDF91CF911F910F91FF90EF9092
:10329000DF90CF90BF90AF909F908F907F906F9076
:1032A0005F903F902F900994DF91CF911F910F91E4
:1032B000FF90EF90DF90CF90BF90AF909F908F9056
:1032C0007F906F905F903F902F900895DF92EF92E4
:1032D000FF920F931F93CF93DF93FC01E058FF4FB2
:1032E000D080DD2009F45CC0319600811181D801C5
:1032F0001196FC901197EC90EC01C05CDF4F888137
:103300009981009709F44CC0DC01ED91FC9101908A
:10331000F081E02D60EF099588819981DC01ED91C4
:10332000FC910190F081E02D69E7099588819981F0
:10333000DC01ED91FC910190F081E02D6E2D09955D
:1033400088819981DC01ED91FC910190F081E02D63
:103350006F2D09957801B2E0EB0EF11C0D0D111DDA
:10336000E016F10661F020E030E0A70161E070E0D6
:10337000CE010E94BF18EFEFEE1AFE0AF1CF88814E
:103380009981DC01ED91FC910190F081E02D67EFD6
:10339000DF91CF911F910F91FF90EF90DF900994F3
:1033A000DF91CF911F910F91FF90EF90DF900895E3
:1033B000009711F00C94661908951F920F920FB6A2
:1033C0000F9211242F933F934F935F936F937F93AB
:1033D0008F939F93AF93BF93EF93FF938091B90027
:1033E000887F803609F49CC068F5883209F45BC098
:1033F00090F4803109F454C038F4882309F4F6C0FD
:10340000883009F44DC0F6C0883109F44CC08032D0
:1034100009F45DC0EFC0803409F468C048F480331B
:1034200009F455C0883309F0E5C08093E004D8C0A2
:10343000803509F44FC0883509F45DC0883409F03F
:10344000D9C0D6C0883909F4C7C0A8F4883709F4B0
:1034500067C038F4883609F463C0803709F460C067
:10346000C9C0883809F4B8C0803909F45FC0803811
:1034700009F0C0C05BC0803B09F486C038F4803AD4
:1034800009F466C0883A09F47FC0B4C0803C09F4EE
:10349000A7C0883C09F4A4C0883B09F48AC0AAC02C
:1034A0008091BD0410C09091DF048091DE049817D4
:1034B00070F5E091DF0481E08E0F8093DF04F0E08F
:1034C000E254FB4F80818093BB0085EC86C08093E3
:1034D000E0048EC0E091DF0481E08E0F8093DF0472
:1034E0008091BB00F0E0E254FB4F80839091DF04B9
:1034F0008091DE046EC0E091DF0481E08E0F809346
:10350000DF048091BB00F0E0E254FB4F80838091A8
:10351000E10481116DC081E08093BC0484EA61C044
:1035200083E08093E2041092B004CFCF8091B00486
:10353000803208F051C0E091B00481E08E0F80939A
:10354000B0048091BB00F0E0E057FB4F8083BDCF1B
:1035500085EC8093BC001092E2048091B00480322C
:1035600030F4E091B004F0E0E057FB4F108260913E
:10357000B00470E0E0918E04F0918F0480E994E053
:1035800009951092B00436C084E08093E204109252
:103590008D0410928A04E0918B04F0918C040995BB
:1035A00080918A04811105C081E080938A04109281
:1035B0006A04E0918D0481E08E0F80938D04F0E029
:1035C000E659FB4F80818093BB0090918D048091E0
:1035D0008A04981708F479CF85E88093BC000AC064
:1035E00085EC8093BC001092E20404C01092E004C9
:1035F0000E940324FF91EF91BF91AF919F918F9112
:103600007F916F915F914F913F912F910F900FBEDE
:103610000F901F90189508950F931F930E94AD1758
:1036200060932505709326058093270590932805C0
:10363000E0911D05F0911E050284F385E02D8DE1DA
:1036400095E0099597FF1FC00E94AD1700912505D1
:10365000109126052091270530912805DC01CB012A
:10366000801B910BA20BB30B009121051091220539
:10367000209123053091240580179107A207B307F5
:10368000B8F28FEF9FEF1F910F910895CF93DF93C3
:10369000EC0188819981009711F00E9418321982FB
:1036A00018821D821C821B821A82DF91CF9108959D
:1036B0000F931F93CF93DF93EC018881998100973B
:1036C00029F02A813B812617370788F48B016F5F29
:1036D0007F4F0E94B032009761F0998388831B83EB
:1036E0000A832C813D81232B11F4FC01108281E09F
:1036F00001C080E0DF91CF911F910F9108953F921B
:103700004F925F926F927F928F929F92AF92BF92F1
:10371000CF92DF92EF92FF920F931F93CF93DF939D
:1037200000D000D0CDB7DEB720910C012D3021F0B4
:103730002F3F09F02CC204C0E0EAF6E0349076C0D6
:103740002DE020930C01E0EAF6E0E491EF3F09F46C
:103750001EC2E13011F1E23009F443C0E11165C04D
:1037600014BC15BC24B5226024BD25B5216025BD3F
:10377000ECECF6E0E491F0E0EE0FFF1FEB54F94FB4
:10378000259134913093100520930F05E0EEF6E07B
:10379000E491E0930E05312C4BC010928000109202
:1037A0008100209181002860209381002091810078
:1037B000216020938100ECECF6E0E491F0E0EE0F64
:1037C000FF1FEB54F94F2591349130930D05209351
:1037D0000C05E0EEF6E0E491E0930B05332433941E
:1037E00027C01092B0001092B1002091B00022606A
:1037F0002093B0002091B10021602093B100ECEC47
:10380000F6E0E491F0E0EE0FFF1FEB54F94F259145
:10381000349130930A0520930905E0EEF6E0E49137
:10382000E0930805B2E03B2E03C03E2E37FCAFC14B
:103830002A013B018C0161E08DE00E94FB164801EA
:10384000A12CB12C832D8D7F09F0BBC060E072E10B
:103850008AE790E0A50194010E94D72F29833A833B
:103860004B835C8369017A0121E0C21AD108E10827
:10387000F1088FEFC816D104E104F10409F008F44F
:103880004CC060E472E48FE090E0A50194010E94D6
:10389000D72F69017A01E1E0CE1AD108E108F108D9
:1038A000F2E03F1220C02FEFC216D104E104F10470
:1038B00009F008F46AC160E970ED83E090E0A501C9
:1038C00094010E94D72F69017A0181E0C81AD108BA
:1038D000E108F108EFEFCE16D104E104F10409F09C
:1038E000D0F583E067C0FFEFCF16D104E104F10407
:1038F000B1F0A8F068E478EE81E090E0A5019401D1
:103900000E94D72F69017A0181E0C81AD108E10825
:10391000F108332009F4DFC02FC181E001C082E04B
:103920003320A1F047C089819A81AB81BC812AE014
:10393000B595A795979587952A95D1F76C017D0147
:1039400021E0C21AD108E108F10885E095B5987F19
:10395000892B85BD6FC068E478EE81E090E0A50119
:1039600094010E94D72F69017A01F1E0CF1AD108A2
:10397000E108F1082FEFC216D104E104F10409F0C7
:1039800008F4A7C064E274EF80E090E0A501940120
:103990000E94D72F69017A01E1E0CE1AD108E1082F
:1039A000F108FFEFCF16D104E104F10411F008F0A3
:1039B000B4C085E09091B100987F892B8093B100CD
:1039C00039C060E072E18AE790E0A50194010E94AD
:1039D000D72F69017A0181E0C81AD108E108F108FE
:1039E000C114D104E1E0EE06F10488F068E478EE59
:1039F00081E090E0A50194010E94D72F69017A012E
:103A0000F1E0CF1AD108E108F10893E001C091E09C
:103A100021E032120FC080918100887F892B809332
:103A20008100411451046104710449F42FEF3FEF08
:103A3000A9012DC0411451046104710471F0D80131
:103A4000AA0FBB1FA30192010E94F62F28EE33E0BC
:103A500040E050E00E94403003C02FEF3FEFA9014B
:103A600081E03816A1F0E2E03E1619F131108FC066
:103A7000C7BC2093190530931A0540931B0550933A
:103A80001C0580916E00826080936E0080C0D09291
:103A90008900C09288002093150530931605409345
:103AA00017055093180580916F00826080936F0016
:103AB0006EC0C092B300209311053093120540935D
:103AC00013055093140580917000826080937000FC
:103AD0005EC084E06FCFFFEFCF16D104E104F104A4
:103AE000D1F0C8F062E17AE780E090E0A5019401AE
:103AF0000E94D72F69017A0181E0C81AD108E10834
:103B0000F108EFEFCE16D104E104F10411F008F052
:103B10000ACF84E01BCF83E019CF62E17AE780E02F
:103B200090E0A50194010E94D72F69017A0181E0FC
:103B3000C81AD108E108F108EFEFCE16D104E1046C
:103B4000F104C1F0B8F089819A81AB81BC814AE06F
:103B5000B595A795979587954A95D1F76C017D0105
:103B600021E0C21AD108E108F108332009F4EDCEB2
:103B700087E020CF86E0D4CEFFEFCF16D104E1045A
:103B8000F10409F050F684E0CBCE82E013CF0F9021
:103B90000F900F900F90DF91CF911F910F91FF9099
:103BA000EF90DF90CF90BF90AF909F908F907F90DD
:103BB0006F905F904F903F900895EF92FF920F9318
:103BC0001F93CF93DF93C82F8091FA059091FB0547
:103BD0000097C9F17A018B01DC01ED91FC91019014
:103BE000F081E02D60EF09958091FA059091FB0539
:103BF000DC01ED91FC910190F081E02D6C2F099595
:103C0000E7010E0D1F1DC017D10759F020E030E06D
:103C1000AE0161E070E08AEF95E00E94BF18219646
:103C2000F2CF8091FA059091FB05DC01ED91FC91BA
:103C30000190F081E02D67EFDF91CF911F910F91FF
:103C4000FF90EF900994DF91CF911F910F91FF901A
:103C5000EF900895FC0101900020E9F73197BF0132
:103C6000681B790BAC0181E70C94DD1DCF92DF92CC
:103C7000EF92FF926B017C01E0912D05F0912E05F2
:103C800082E08083C11481EED806E104F104B1F032
:103C900060E079E08DE390E0A70196010E9440305A
:103CA000DA01C9010197A109B109B695A7959795C0
:103CB00087959C01211580E13807B8F0E0912D052A
:103CC000F0912E05108260E874E88EE190E0A70183
:103CD00096010E944030DA01C9010197A109B1099A
:103CE000B695A795979587959C01E0912905F09148
:103CF0002A053083E0912B05F0912C05208310924A
:103D00003505E0913105F091320586E08083E09140
:103D10002F05F0913005808180618083E0912F052F
:103D2000F0913005808188608083E0912F05F091CB
:103D30003005808180688083E0912F05F091300507
:103D400080818F7D8083FF90EF90DF90CF900895EA
:103D50008DE195E00E94C515EDE1F5E0A289B389FA
:103D60008C918F7E8C93A289B3898C91877F8C9361
:103D7000A289B3898C918F778C93A289B3898C9116
:103D80008F7D8C93828D818F0895FC0144815581B4
:103D9000608171818DE195E00C945025009769F068
:103DA000FC0101900020E9F73197AF01481B590B46
:103DB000BC018DE195E00C94502580E090E00895E1
:103DC0000F931F93E091B706F091B8069081809110
:103DD000B106892B8083E091B306F091B4069081FF
:103DE0008091B1068095892380838BE090E00197D4
:103DF000F1F7E091B306F091B40690818091B1069D
:103E0000892B808383E290E00197F1F7E091B3067C
:103E1000F091B40690818091B106809589238083CA
:103E2000E091B706F091B80690818091B106809537
:103E300089238083E091B506F091B6069081809148
:103E4000B206892309F073C00E944E172091B9066B
:103E50003091BA06890120E030E00855194E2F4F05
:103E60003F4FDC01CB01800F911FA21FB31F809336
:103E7000BB069093BC06A093BD06B093BE06E0912E
:103E8000B506F091B60690818091B206892381F43F
:103E90000E944E170091BB061091BC062091BD06F2
:103EA0003091BE06061717072807390740F73FC0AD
:103EB0000E944E172091B9063091BA06DC01CB0161
:103EC000820F931FA11DB11D8093BB069093BC066A
:103ED000A093BD06B093BE06E091B506F091B6067C
:103EE00090818091B206892381F00E944E17009143
:103EF000BB061091BC062091BD063091BE06061788
:103F000017072807390740F712C00E944E17209163
:103F1000B9063091BA06255031094091BB0650913F
:103F2000BC06241B350BC901860F971F02C080E019
:103F300090E01F910F910895CF93DF93FC01A08132
:103F4000B181109701F1EC01ED91FC911197019075
:103F5000F081E02D69EFCD01099588819981DC011F
:103F6000ED91FC910190F081E02D62E0099588814E
:103F70009981DC01ED91FC910190F081E02D65E0EB
:103F8000DF91CF910994DF91CF910895A0913806E8
:103F9000B0913906ED91FC9111970190F081E02DDF
:103FA000682FCD010994382F2091060590910505C1
:103FB000213208F049C08091E2048111FCCF42E037
:103FC0004093E2043093E1043FEF3093E004109219
:103FD000DF042093DE04A5EEB4E04EEB54E0FA01DA
:103FE0003E2F341B321718F43D913193F9CF1092C4
:103FF000BD042091BD04990F922B9093BD04909124
:10400000BC04913061F41092BC049091BD04909373
:10401000BB009091BC0093FDF8CF95EC01C095EEEC
:104020009093BC009091E2049230E1F39091E0040F
:104030009F3F79F08091E004803241F08091E0046C
:10404000803331F084E005C081E003C082E001C02C
:1040500083E01092E404109206051092E3040895A0
:104060001F93CF93DF93182FEB018091FF05909161
:1040700000066817790748F46091FD057091FE0508
:10408000C60FD71F188380E018C0E0912C06F0916E
:104090002D06309711F481E010C081E08093FC057B
:1040A000809118069091190609958091FF059091CD
:1040B0000006C817D90778F7DFCFDF91CF911F919E
:1040C0000895CF93DF93EC01FB0120E030E0CF01B6
:1040D000861B970B2C173D0778F4DB01A20FB31F4B
:1040E0009C91908311964C91479544274795942B2A
:1040F00091932E5F3F4FEBCFDF91CF910895FC015D
:10410000248135816217730720F4808191810097A3
:1041100029F41092070587E095E00895860F971F10
:104120000895FB0144815581FC01248135812417C8
:10413000350778F080819181009759F0FB0160810B
:1041400071816115710529F00E948F3321E0892B5F
:1041500009F020E0822F0895EF92FF920F931F93B2
:10416000CF93DF93FC01248135816115710511F432
:1041700080E019C041155105A9F07B01EC018A01CD
:10418000020F131FB8010E94581B882389F328814E
:1041900039818C819D81B701820F931F0E948833E2
:1041A0001D830C8381E0DF91CF911F910F91FF90D0
:1041B000EF900895EF92FF920F931F93CF93DF93A9
:1041C000CDB7DEB728970FB6F894DEBF0FBECDBFD0
:1041D0007C014AE08E010F5F1F4FB80182ED94E031
:1041E0000E94A72EF80101900020E9F73197AF0156
:1041F000401B510BB801C7010E94AC20811103C0C4
:10420000C7010E94461BC70128960FB6F894DEBF6F
:104210000FBECDBFDF91CF911F910F91FF90EF9017
:104220000895CF93DF93EC01FB01448155816081B8
:1042300071810E94AC20811103C0CE010E94461BF7
:10424000CE01DF91CF9108950F931F93CF93DF930A
:104250008C01EB01FC01808191810097B1F06881B4
:1042600079816115710579F0428153812C813D81FD
:104270004217530740F00E9488338C819D81F801DA
:104280009583848313C00E94183288819981F80134
:10429000918380838A819B81938382838C819D819A
:1042A00095838483198218821B821A821D821C8244
:1042B000DF91CF911F910F910895EF92FF920F938D
:1042C0001F93CF93DF93EC017B018A01BA010E9417
:1042D000581B811104C0CE010E94461B07C01D83DC
:1042E0000C83B701888199810E948833CE01DF91C8
:1042F000CF911F910F91FF90EF900895CF93DF938F
:10430000EC01FB018617970761F0608171816115EF
:10431000710529F0448155810E945D2102C00E94EF
:10432000461BCE01DF91CF910895FC0180819181E0
:104330000C941832FC0111821082138212821582B1
:1043400014820C947E21FC0111821082138212824D
:10435000158214826115710551F0FB010190002056
:10436000E9F73197AF01461B570B0C945D21089577
:104370000F931F93CF93DF9300D0CDB7DEB78C019F
:104380006EEB71E00E94A3210E940C1B97FD0BC0F5
:1043900089831A8241E050E0BE016F5F7F4FC80100
:1043A0000E94AC20F1CFC8010F900F90DF91CF9108
:1043B0001F910F91089590910C01981324C0E0EA89
:1043C000F6E0E4919FEF90930C01E130B9F098F0A2
:1043D000E230C9F4909170009D7F9093700091E05D
:1043E0009093B0009091B100987F94609093B10049
:1043F0001092B30008C010926E0005C090916F003B
:104400009D7F90936F0060E00C94CB161F920F92EB
:104410000FB60F9211242F933F934F935F936F9397
:104420007F938F939F93AF93BF93EF93FF9380916D
:10443000110590911205A0911305B0911405892BD7
:104440008A2B8B2B51F180910805E0910905F091A1
:104450000A0590818927808380911105909112052A
:10446000A0911305B0911405181619061A061B061B
:10447000C4F48091110590911205A0911305B0919B
:1044800014050197A109B1098093110590931205B4
:10449000A0931305B093140504C080910C010E94F1
:1044A000DB21FF91EF91BF91AF919F918F917F9110
:1044B0006F915F914F913F912F910F900FBE0F9091
:1044C0001F9018951F93CF93DF9300D0CDB7DEB721
:1044D000182F7A8369838091FA059091FB050097E4
:1044E00009F44EC0DC01ED91FC911031A8F4611586
:1044F000704490F4612F606E0190F081E02D099579
:1045000022E030E0AE014F5F5F4F62E070E08AEF83
:1045100095E00E94BF1834C00190F081E02D60EF5B
:1045200009958091FA059091FB05DC01ED91FC91D4
:104530000190F081E02D6FE609958091FA05909148
:10454000FB05DC01ED91FC910190F081E02D612FE4
:10455000099522E030E0AE014F5F5F4F62E070E00E
:104560008AEF95E00E94BF188091FA059091FB05B3
:10457000DC01ED91FC910190F081E02D67EF099550
:104580000F900F90DF91CF911F91089540918A0471
:10459000262F30E0240F311D21323105DCF420912B
:1045A000E2042430C9F4FC0180E090E0861758F45E
:1045B00030918A042191DC01A659BB4FA30FB11D94
:1045C0002C930196F3CF80918A04680F60938A043C
:1045D00080E0089581E0089582E008950895E091D3
:1045E000790780917807E81730F4F0E0E85AF84F3F
:1045F000808190E008958FEF9FEF08959091790763
:1046000080917807981750F4E92FF0E0E85AF84FB6
:10461000208130E09F5F9093790702C02FEF3FEF3A
:10462000C90108958091780790E020917907821B55
:1046300091090895CF92DF92EF92FF920F931F930B
:10464000CF93DF937C01262F972F8A018091E3047B
:10465000882391F0C62FD72F6E01C40ED51ECC151E
:10466000DD0571F06991D701ED91FC910190F08128
:10467000E02DC7010995F3CF642F822F0E94C62237
:10468000C801DF91CF911F910F91FF90EF90DF90C4
:10469000CF900895CF93DF931F92CDB7DEB7698394
:1046A0002091E3042223D1F020910605203240F02E
:1046B00021E030E0FC013383228380E090E015C0EC
:1046C0008091E404E82FF0E0EB51FB4F9981908357
:1046D0008F5F8093E4048093060505C061E0CE01FE
:1046E00001960E94C62281E090E00F90DF91CF9169
:1046F0000895089580E090E00895CF92DF92FF92B0
:104700000F931F93CF93DF9381E08093570780919E
:104710005607882329F0109256078FEF80930501E2
:1047200010927C03109279031092530710927D032C
:1047300010927A031092540710927E0310927B031A
:10474000109255070DE317E0C0E0D0E0C12C8CE0DB
:10475000D82EFF24FA948C2F8E50883018F462E003
:1047600070E013C08C2F8250823190F4C6010C2E61
:1047700002C0959587950A94E2F780FF04C06BE02C
:1047800070E08C2F03C061E070E08C2F0E94200746
:10479000F801F1928F012196C631D105E1F6109210
:1047A000AE031092AD0310923C0710923B0709E74D
:1047B00013E0C0E0F80191918F01C11103C069B10C
:1047C0006C7F0FC0C13049F463B186B1F0E48F9FB4
:1047D000900111246F73622B04C066B16C736695EF
:1047E0006695692341E08C2F0E94AF05CF5FC330EF
:1047F00009F710925707DF91CF911F910F91FF900A
:10480000DF90CF90089585ED8093BC008091BC002F
:1048100084FDFCCF1092E2040895DF92EF92FF92A4
:104820000F931F93CF93DF93EC01D62E7A0189016A
:1048300088818C3008F06AC061E08D2D0E94FB16E3
:104840008881E82FF0E09F01220F331FE20FF31F52
:10485000E457F94F9D2D9F732081207CD22ED92AB9
:10486000D08260E272E0AB014E195F0957FF02C0CF
:104870004D5F5F4F5595479555954795498340E660
:1048800059E09A01201B310B37FF02C02D5F3F4FCB
:1048900035952795359527952A836CE00E9412312E
:1048A0009CE0899FB001112440E050E09A01260F5E
:1048B000371FF901EE0FFF1F2E0F3F1FF901E457BD
:1048C000F94F908196FD16C04F5F5F4F4C305105F8
:1048D00069F781110FC01092800082E080938100FF
:1048E0001092850010928400B19A80916F008260CE
:1048F00080936F00E881F0E0CF01880F991FE80FE7
:10490000F91FE457F94F8081806480838881DF91AB
:10491000CF911F910F91FF90EF90DF9008951F921C
:104920000F920FB60F9211242F933F934F935F93E3
:104930006F937F938F939F93AF93BF93EF93FF9367
:1049400080917A0787FF05C010928500109284003D
:104950001BC020917A07022E000C330B8091B00609
:1049600090E02817390784F480917A07082E000C0C
:10497000990BFC01EE0FFF1F8E0F9F1FFC01E457E8
:10498000F94F808186FD15C080917A078F5F8093F3
:104990007A0720917A07022E000C330B8091B00623
:1049A00090E028173907C4F480917A078C3064F1BD
:1049B00013C080917A07082E000C990BFC01EE0FB2
:1049C000FF1F8E0F9F1FFC01E457F94F808160E0AD
:1049D0008F730E94CB16D8CF809184009091850070
:1049E000049680349C4918F480E49CE905C08091C9
:1049F00084009091850004969093890080938800AC
:104A00008FEF80937A073BC020918400309185001E
:104A100080917A07082E000C990BFC01EE0FFF1F06
:104A20008E0F9F1FFC01E457F94F81819281820F05
:104A3000931F909389008093880080917A07082EB5
:104A4000000C990BFC01EE0FFF1F8E0F9F1FFC0146
:104A5000E457F94F808186FF12C080917A07082EB3
:104A6000000C990BFC01EE0FFF1F8E0F9F1FFC0126
:104A7000E457F94F808161E08F730E94CB16FF915C
:104A8000EF91BF91AF919F918F917F916F915F91C6
:104A90004F913F912F910F900FBE0F901F9018953F
:104AA000CF92DF92EF92FF920F931F93CF93DF93FA
:104AB0006C017A018B01C0E0D0E0CE15DF0589F0F2
:104AC000D8016D918D01D601ED91FC910190F0819D
:104AD000E02DC6010995892B11F47E0102C02196B3
:104AE000ECCFC701DF91CF911F910F91FF90EF9015
:104AF000DF90CF900895CF93DF93CDB7DEB7C45446
:104B0000D1090FB6F894DEBF0FBECDBF789484B53F
:104B1000826084BD84B5816084BD85B5826085BDB9
:104B200085B5816085BD80916E00816080936E0047
:104B30001092810080918100826080938100809139
:104B400081008160809381008091800081608093EA
:104B500080008091B10084608093B1008091B000AA
:104B600081608093B00080917A00846080937A00A5
:104B700080917A00826080937A0080917A008160CF
:104B800080937A0080917A00806880937A001092F6
:104B9000C1006EEB71E0CE01CF960E94A3216EEBB7
:104BA00071E0CE01C9960E94A32180E2E3E1F1E029
:104BB000DE01119601900D928A95E1F785E10E9440
:104BC0003717C3970CF0F1C1CE0101965C018E013D
:104BD0000F5D1F4FE8EECE2EE3E0DE2EE12CF12C30
:104BE00065EB71E0C8010E94A321C8010E949708EB
:104BF000C8010E949521D5016D917D918D919D9166
:104C00005D010E94361E8AEB91E00E94CE1EC0928A
:104C10002105D0922205E0922305F0922405C801D7
:104C20000E94B821B801CE01CF960E942421C8016C
:104C30000E9495218AEB91E00E94CE1EC092210530
:104C4000D0922205E0922305F0922405C8010E942B
:104C5000B821B801CE01CF960E942421C8010E943C
:104C600095216FEB71E0C8010E94A321B801CE012C
:104C7000CF960E949120982EC8010E9495219110F4
:104C800056C087EB91E00E94CE1EC0922105D092C3
:104C90002205E0922305F0922405C8010E94B82164
:104CA000B801CE01CF960E942421C8010E9495210F
:104CB00087EB91E00E94CE1EC0922105D092220582
:104CC000E0922305F0922405C8010E94B821B801A2
:104CD000CE01CF960E942421C8010E9495216FEB3E
:104CE00071E0C8010E94A321B801CE01CF960E94B5
:104CF0009120982EC8010E949521911060C50E94B4
:104D0000A81EA016B10609F06BCF60EC72E0C801D6
:104D10000E94A321C8010E949708C8010E94952102
:104D200064E670E080E090E00E947317EECF6CEBD9
:104D300071E0C8010E94A32168E672E0CE01879667
:104D40000E94A3216EE672E0CE01C3960E94A321C9
:104D5000BE016D5C7F4FCE018D960E949A21BE01EF
:104D6000695D7F4FCE018D960E941121B8010E948E
:104D70001121BC01CE01C9960E947E21CE018D96E3
:104D80000E949521CE01C3960E949521CE0187965F
:104D90000E949521C8010E949521FF24F394CE0121
:104DA000C9960E94C51E88EB9BE0A0E0B0E080930E
:104DB000210590932205A0932305B093240564EF69
:104DC00071E080E090E00E9473176FEB71E0C80122
:104DD0000E94A321C8010E949708C8010E94952142
:104DE000FF2009F4BCC46CEB71E0C8010E94A32150
:104DF00062EC71E0CE018D960E94A321BE01635D3D
:104E00007F4FCE0187960E949A21CE0187960E94FD
:104E1000DA20B8010E941121BC01CE01C9960E947E
:104E20007E21CE0187960E949521CE018D960E940B
:104E30009521C8010E949521CE01C9960E94C51EE8
:104E400088EB9BE0A0E0B0E08093210590932205E1
:104E5000A0932305B093240564EF71E080E090E017
:104E60000E9473176FEB71E0C8010E94A321C80173
:104E70000E949708C8010E949521FF2009F489C467
:104E80006CEB71E0C8010E94A32169EC71E0CE01D6
:104E90008D960E94A321BE01635D7F4FCE01879650
:104EA0000E949A21B801CE0187960E941121BC016F
:104EB000CE01C9960E947E21CE0187960E9495213F
:104EC000CE018D960E949521C8010E949521CE01A8
:104ED000C9960E94C51E88EB9BE0A0E0B0E08093DD
:104EE000210590932205A0932305B093240564EF38
:104EF00071E080E090E00E9473176FEB71E0C801F1
:104F00000E94A321C8010E949708C8010E94952110
:104F1000FF2009F449C46CEB71E0C8010E94A32191
:104F200067ED71E0CE018D960E94A321BE01635D05
:104F30007F4FCE0187960E949A21B801CE018796B5
:104F40000E941121BC01CE01C9960E947E21CE0192
:104F500087960E949521CE018D960E949521C801C9
:104F60000E949521CE01C9960E94C51E88EB9BE048
:104F7000A0E0B0E08093210590932205A093230543
:104F8000B093240564EF71E080E090E00E94731715
:104F90006FEB71E0C8010E94A321C8010E9497082D
:104FA000C8010E9495210E94A81ECE01C9960E94A8
:104FB0009521CE01CF960E94952181E180933A06FA
:104FC00080913B0690913C060E94183200913A066F
:104FD00010E0C80101960E94833190933C068093B3
:104FE0003B06FC01E00FF11F108222E0FC01208350
:104FF00025E02183A801425051096BE472E002963A
:105000000E949D3380E794E0909372038093710334
:1050100084ED93E09093700380936F038FE993E0A6
:1050200090936E0380936D038FEE94E190936C03E5
:1050300080936B0380E297E090936A038093690307
:105040008AE995E0909368038093670381EE9EE080
:1050500090937403809373038DE793E290937603A8
:105060008093750360E071EE80E090E00E94361E50
:1050700080917F06811150C061E08DE00E94FB1697
:1050800062ED70E080E090E00E94731761E08DE0D7
:105090000E94CB1668E270E080E090E00E947317F7
:1050A00060E08DE00E94CB1662ED70E080E090E061
:1050B0000E94731761E08DE00E94CB1668E270E0F9
:1050C00080E090E00E94731760E08DE00E94CB16B4
:1050D0006AEF70E080E090E00E94731710E062EDEC
:1050E00070E080E090E00E94731761E08DE00E9424
:1050F000CB1668E270E080E090E00E94731760E0F9
:105100008DE00E94CB161F5F153049F76DE770E008
:1051100080E090E00E9473178DE195E0909339064E
:10512000809338069093FB058093FA058AEF95E00B
:105130000E949C1F8AEB95E00E9466190E947D23C5
:1051400080911507909116071816190644F421E06E
:105150004CE060E070E08FEB96E00E940D188091CB
:105160001507909116071816190644F427E04AE02F
:1051700060E070E08FEB96E00E940D1880911507BB
:10518000909116071816190634F460E070E08FEB62
:1051900096E00E94941881E00E94960E6BE572E002
:1051A000CE0101960E94A321CE0101960E9497088C
:1051B000CE0101960E94952180E00E94960E62E049
:1051C0008CE00E94FB16E8E2F3E08491EFEDF6E05C
:1051D0000491EBECF6E01491112309F419C3811149
:1051E0000E94A216E12FF0E0EE0FFF1FE555F94FE8
:1051F000A591B491EC91E02309F40AC3DD24D39482
:1052000002E010E0EE24E394F12C65E0C62E8091DC
:105210007C03882349F069B18091790368236C7F0E
:1052200040E080E00E94AF0580917D03882379F003
:1052300063B196B120E4929FC00111246F73862B55
:1052400060917A03682340E081E00E94AF0580917D
:105250007E038823E1F066B16C7366956695809154
:105260007B03682340E082E00E94AF0510C080917C
:10527000380690913906DC01ED91FC910284F385AA
:10528000E02D09959C018F3FBFEF9B0771F4809142
:10529000380690913906DC01ED91FC910084F1858E
:1052A000E02D0995892B19F7BEC1982F809105062D
:1052B000882309F492C0973F09F07EC0109205063A
:1052C000A091FD05B091FE056C916137C1F1693780
:1052D00009F05CC0E0913206F09133063097B9F2E4
:1052E00080910606909107068330910538F420E0FE
:1052F00030E040E050E060E070E01BC0BD016D5F59
:105300007F4F03970E946120BC016D5F7F4F80E05B
:105310000E943020E091FD05F091FE059F012D5F78
:105320003F4F428150E0618170E0E0913206F091A0
:10533000330680911406909115060995A8CF8091A7
:105340002E0690912F06892B09F4A1CFBD016F5F26
:105350007F4F809106069091070601970E94612079
:10536000BC016F5F7F4F80E00E9430206091FD059F
:105370007091FE056F5F7F4FE0912E06F0912F0632
:1053800080911A0690911B06099581CFE091300615
:10539000F0913106309709F47ACF9D012F5F3F4F8E
:1053A00040910606509107064150510980911C0614
:1053B00090911D0609956BCF6091060670910706C6
:1053C000822F0E9430208091060690910706019658
:1053D00090930706809306065ACF6091030670915A
:1053E00004066115710509F4AFC027FDADC0615019
:1053F00071097093040660930306822F0E94302087
:105400008091030690910406892B09F040CF80918A
:105410000106882309F43BCF803D09F47FC030F4B6
:10542000803939F1803C09F466C08BC0843FE1F1DA
:10543000853F09F44DC0803E09F083C0E09120060D
:10544000F0912106309709F47CC0A091FD05B09140
:10545000FE058C9111964C9150E020E8829F400D02
:10546000511D112460910206809108069091090651
:1054700067C0E0912206F0912306309709F461C0DD
:10548000A091FD05B091FE058C9111964C9150E0D4
:1054900090E8899F400D511D112460910206809172
:1054A0000A0690910B064CC0E0912806F09129065F
:1054B000309709F446C0A091FD05B091FE054C91CE
:1054C00050E011966C91809110069091110638C0B1
:1054D000E0912A06F0912B06309799F1A091FD05F5
:1054E000B091FE054C9150E011966C91809112069E
:1054F0009091130625C0E0912406F091250630977F
:1055000001F1A091FD05B091FE054C9150E0609134
:10551000020680910C0690910D0612C0E0912606BD
:10552000F0912706309769F0A091FD05B091FE0536
:105530004C9150E06091020680910E0690910F060A
:10554000099510920106A3CE903F30F4822F8F7000
:1055500080930206922F907F903F79F158F4903C0F
:1055600029F118F49039E9F092CE903DF9F0903E8F
:10557000C1F08DCE993F09F449C028F48CE0890F21
:10558000823078F084CE9F3F09F081CE10920406DD
:1055900010920306109201061092020680E090E03D
:1055A00013C0109304060093030604C0F09204068F
:1055B000E0920306909301066ACED09205061092FF
:1055C00007061092060663CE2091FF053091000673
:1055D0008217930748F4E091FD05F091FE05E80F6E
:1055E000F91F10820196F0CF10920506109207065F
:1055F00010920606E0913606F0913706309709F4CE
:1056000046CE80911E0690911F060BC0E091340695
:10561000F0913506309709F43ACE809116069091B4
:105620001706099534CE0E94AD176093B3037093AB
:10563000B4038093B5039093B6034090AF035090AA
:10564000B0036090B1037090B20340910601509195
:1056500007019A0140E050E04B015C018418950875
:10566000A608B708281539054A055B0508F074C077
:10567000DA01C901840D951DA61DB71D8093AF03E6
:105680009093B003A093B103B093B2033DE3832E94
:1056900036E0932E42EFB42EB7E0BB15B8F0F4011C
:1056A0008081823099F48091AD039091AE030B2CF0
:1056B00002C0959587950A94E2F780FF07C08B2D6D
:1056C0000E943717BC018B2D0E946222B394FFEF1A
:1056D0008F1A9F0A28E0B212DFCF8091050187FF61
:1056E00007C0809184038823F1F00E948B0B1BC0BC
:1056F000B12C2B2D30E080910501082E000C990B68
:105700008217930774F3C29EF001C39EF00D11241B
:10571000EB57FC4F618172812481438180810E941B
:10572000F105B394E6CF80918303882319F080E0DC
:105730000E944D0C8091820381110E941A0A80916F
:10574000810381110E94F80880918003882321F051
:1057500080917F030E94650A0E94E71558CD62EC94
:1057600071E0CE0187960E94A321BE01695D7F4F43
:10577000C8010E949A21C8010E94DA20BC01CE0112
:10578000C9960E947E21C8010E949521CE0187966C
:1057900051CB69EC71E0C8010E94A321B801CE0190
:1057A000C9960E94242190CB67ED71E0C8010E9448
:1057B000A321B801CE01C9960E942421D0CB68E66E
:1057C00072E0C8010E94A3216EE672E0CE018D96C0
:1057D0000E94A321BE01635D7F4FCE0187960E9488
:1057E0009A21B801CE0187960E941121BC01CE01F9
:1057F000C9960E947E21CE0187960E949521CE01F6
:105800008D960E949521C8010E949521F12CC7CA4E
:1058100061E070E08BE00E94200760E070E08AE0C9
:105820000E94200782E08093780311E010938203A6
:10583000809377031093810384E00E94710B109290
:105840007F031093800384E60E94940980E50E9400
:105850006C0960ED77E080E090E00E9473178AE5C4
:105860000E9494098AE50E946C096AEF70E080E06A
:1058700090E00E94731780E50E94940984E60E94DC
:105880006C0960ED77E080E090E00E9473178AE594
:105890000E9494098AE50E946C0984E0E82E10E0D9
:1058A00099E3892E912CA12CB12C6E0181E2C80EB6
:1058B000D11C25E0722EFF24F39480918403811182
:1058C0000E948B0B80918303882319F080E00E9453
:1058D0004D0C8091820381110E941A0A80918103EC
:1058E00081110E94F80880918003882329F080911B
:1058F0007F030E94650AE1CF109281031092820318
:105900000E94E01EBC0180E090E0A50194010E948D
:105910004030022F222309F444C0822F0E94E70D59
:1059200088E20E94EB098CE80E94BC09FAE00F13A0
:1059300018C01F5F103809F0C0CFE3948E2D672D7B
:105940000E941231892F0E94710B10927F03F092F6
:105950008003F0928203F092810380E00E94960E11
:105960001EC01A8219821C821B821E821D820E5B3F
:1059700009A31AA2F60101900020E9F73197AF01BF
:105980004C195D09B601CE0101960E945D21CE0140
:1059900001960E949708CE0101960E94952110E081
:1059A0008CCF80E00E94960E8AE50E94EB098AE582
:1059B0000E94BC0982CFCF93DF93109220051092F2
:1059C0001F0548EE53E060E070E0409321055093DE
:1059D0002205609323057093240587E391E090935B
:1059E0001E0580931D0585EC90E090932A05809319
:1059F000290584EC90E090932C0580932B0580EC96
:105A000090E090932E0580932D0581EC90E090938B
:105A1000300580932F0582EC90E0909332058093BF
:105A2000310586EC90E09093340580933305109215
:105A300036051092370510923805109239058AEB19
:105A400095E01092FB051092FA059093FE05809365
:105A5000FD0520E430E0309300062093FF0510920E
:105A6000010610920206109204061092030610928C
:105A7000050610920706109206061092090610926B
:105A8000080610920B0610920A0610920D0610924C
:105A90000C0610920F0610920E061092110610922C
:105AA0001006109213061092120610921906109208
:105AB000180610921B0610921A0610921D061092DC
:105AC0001C0610921F0610921E0610922D061092B0
:105AD0002C061092FC0510923A0610923C06109289
